:4000000000100020110000007D0300007D03000010B500F0BBF9C04670B50F4C23688022D20213432360182000F042FA22680B4B134023600A4A0B4B1A60063A0A4B1A6069
:40004000002525600949092000F0FEF9092000F0EFF9074B1D6070BD00010B40FFFFFBFF0600008004010B4008010B40C10600000C020B4010B572B600240FE01A48620025
:40008000131959000B00411889881A5AC31858880004104300F06CF90134E4B2012CEDD9EE221202114B1A6099231B04104A1360104A1360104A1360104A1360104A1178C1
:4000C00006230B43DBB213700E4A0F4B1A600F4A0F4B1A600F4A104B1A60D82212010F4B1A60FFF799FF10BD3C0A00000C00014000500F4010500F4020500F4030500F4047
:4001000000700F40B66DDB00080004404992000008010440B66D1B00080204400803044010B5064C2378002B07D1054B002B02D0044800E000BF0123237010BD48010020D9
:4001400000000000140A0000084B10B5002B03D00749084800E000BF07480368002B00D110BD064B002BFBD09847F9E7000000004C010020140A0000C00000200000000018
:4001800010B5012000F09EFB0021002000F0DCFB014800F089FBFEE7180A000010B5012804D1184B1B783E3098432AE0002825D100F036F9144B18702A244440E4B200214B
:4001C000002306E0012222409B18DBB264080131C9B20529F6D915225040C0B20022002106E0012404400919C9B240080132D2B2052AF6D98B4203D3152002E0FFF7C0FF47
:400200002A2010BD940100209501002000230AE0C20702D57C220A7001E030220A70400801310133DBB2052BF2D900230B70704770B500F0F5F8174E3070174C174B1878E3
:400240002100FFF7E3FF2500083530782900FFF7DDFF012000F036FB0021002000F074FB200000F021FB0621002000F06DFB0C4800F01AFB0021012000F066FB280000F0CF
:4002800013FB0621012000F05FFB064800F00CFB70BDC046950100206401002094010020200A0000280A000010B562B600F016FB00222A4B1A700024284B1B78012B11D0A4
:4002C000002B04D0022B20D0032B2CD035E00122224B1A700020FFF761FF214B1870FFF7A7FF2AE0FFF7A4FF00F09AF81D4B18701B4B1B78984220D10120FFF74FFF184BE2
:4003000018700222154B1A7017E0FFF791FF00F087F8144B1870124B1B7898420DD103220E4B1A7009E0012000F0CCFA2100002000F00AFB0C4800F0B7FA042C07D90B4B53
:400340001878C043C0B2187000F064F800240134E4B2FA2000F08AF8AEE7C046960100209401002095010020340A0000C400002010B50A00002100F045FB10BD10B500F0A8
:4003800015FB03680C2B00D1FEE7FEE770B50F4E0F4D13E029686B68AC68002202E001C901C30432A242FAD1E868002202E0002102C304328242FAD11035013E002EE9D1C5
:4003C00000F0FAFAFFF770FFFEE7C046010000009C0A000010B500230AE0032B03D89A000949505800E009489900094A885001332F2BF2D9FFF73EFE8022D205116801231D
:400400000B43136010BDC046000000007D03000000000020014B1A681860704700000440024B1B683F2018407047C046040104401F2318401E3B8340014A13607047C04689
:4004400000E100E001BE704770B504000D001F2802D90020FFF7F6FF1034A40080239B059C4664442068256070BDC04610B5040006E0084B586800F087FA074B9C466444DE
:4004800080231B029C42F4D8024B9868604300F07BFA10BDC80000200080FFFF10B5034B1B7B584300F070FA10BDC046C8000020F0B557464E46C0B483B0040000F06EFA18
:4004C0000190E71E2D2F74D83F4B1B78DBB29C4208D83E4B1B78DBB29A463D4B1B78DBB2994631E03B4B1B78DBB29C4208D83A4B1B78DBB29A46394B1B78DBB2994623E0C6
:40050000374B1B78DBB29C4208D8364B1B78DBB29A46354B1B78DBB2994615E0334B1B78DBB29C4208D8324B1B78DBB29A46314B1B78DBB2994607E02F4B1B78DBB29A46B1
:400540002E4B1B78DBB299462D4BDE5D2F2E09D92A2C07D919222B4B1A60052000F014FA192503E0274B1D683F231D40B54206D9234BDA5D234B1A60052000F005FA1F4BD5
:400580009C4664442378DBB21F4A13601F4B52461A601F4B4A461A600520FFF77FFFB5420AD2174BDA5D174B1A60052000F0ECF902E00020FFF746FF019800F0F3F903B07D
:4005C0000CBC91469A46F0BDC0F1FF0FC1F1FF0FC2F1FF0FC3F1FF0FC4F1FF0FC5F1FF0FC6F1FF0FC7F1FF0FC8F1FF0FC9F1FF0FCAF1FF0FCBF1FF0FCCF1FF0FCDF1FF0F02
:40060000480A00002CFF0B4028FF0B401CFF0B4020FF0B40034B1868C0231B02184000D00120704700010B4010B500F0B7F9044A1368C02109020B43136000F0B3F910BD52
:4006400000010B4010B500F0A9F908490A68084B1A408024E40122430A600A6813408022120213430B6000F09DF910BD00010B40FF3FFFFF70B5050000F090F90400FFF75B
:40068000C9FF002803D0FFF7DDFF012100E0002108482840084A1568084B2B40184310601368012901D1FFF7BFFF200000F07AF970BDC0460404040010020B40FBFBFBFF38
:4006C00010B5244B1B685B0715D5234B1B685B070ED5224BD969042001401F4C22688A432260DA698243DA611B69002B00D098470420FFF7BFFF174B1B685B0518D5164B5D
:400700001B685B0510D5154BD9698022D2001140114802688A430260D969114A0A40DA615B69002B00D098478020C000FFF7A2FF084B1B685B030CD5074B1B685B0304D5C0
:40074000064B9B69002B00D098478020C002FFF791FF10BD10020B40DC00002074010020FFFBFFFF10B50B4C226860239A4322602268513B9A432260226810230343D8B225
:40078000104320600120FFF789FE236810229343236010BD0002044070B505000E4C226820231343236023684022934323600020FFF774FE23680F229343236022681023D5
:4007C0002B43D8B2104320600120FFF767FE236810229343236070BD00020440F8B5274A13687F218B43136025490B681B0B1B03244803430B60136820218B4313601168F7
:4008000040230B431360CA277F000020FFF746FE1A4C23681026334323600120FFF73EFE194B1D682368B34323600020FFF736FE08231D402368334323600120FFF72EFED1
:400840002368B3432360002D02D10A20FFF726FE013F002D01D0002FD7D1084B1A6840218A431A601A683F318A431A60044A13681B0B1B0305490B431360F8BD000204404E
:40088000080204404902000004020440B60D000010B50400FFF7A2FF2009FFF77DFF0F202040FFF779FF10BD70B505000078012404E0FFF7EDFF285D0134E4B20028F8D1FF
:4008C00070BDC04610B50400FFF788FF2009FFF749FF0F202040FFF745FF10BD10B52820FFF7C4FD0320FFF73DFF0520FFF7BEFD0320FFF737FF0F20FFF7B8FD0320FFF751
:4009000031FF0120FFF7B2FD0220FFF72BFF0520FFF7ACFD0620FFF7D5FF0E20FFF7D2FF2C20FFF7CFFF0820FFF7CCFF0120FFF7C9FF0C20FFF7C6FF0320FFF7C3FF052017
:40094000FFF794FD10BDC04610B501280BD0002804D002280CD003280FD012E08039C8B2FFF7B0FF0DE04039C8B2FFF7ABFF08E06C39C8B2FFF7A6FF03E02C39C8B2FFF7A4
:40098000A1FF10BD000000000230800804D0C0460138FDD1C046C046C0467047EFF3108072B6704780F310887047C046014B18687047C046400100200E4B70B500251E00A2
:4009C0000D4CE41AA410A54204D0AB00F35898470135F8E700F050F8084B00251E00084CE41AA410A54204D0AB00F35898470135F8E770BD840A0000840A0000840A0000F7
:400A00008C0A000003008218934202D019700133FAE77047000000004552524F522100002D746172676574002D63757272656E7400000000504153530000000000300F4042
:400A4000000400400F400004030405060708090A0B0C0E0F101112131415161718191B1C1D1E1F2021222325262728292A2B2E2F3031323334354300F8B5C046F8BC08BC81
:400A80009E46704749010000D5030000F8B5C046F8BC08BC9E46704721010000B00A0000C00000208800000050000000000000000000000055000000010000000000E02EBB
:400AC000C05D00001800000000366E01040404000000000000000000000000000000000000000000000000000000000000000000760A000000000000000000000000000090
:400B0000000000000000000000000000000000000000000000000000000000000000000000000000000000000000000000000000E0000020000000000000000000000000B5
:400B40000000000000000000000000000000000000000000000000000000000000000000000000000000000000000000000000000000000000000000000000000000000075
:400B80000000000000000000000000000000000000000000000000000000000000000000000000000000000000000000000000000000000000000000000000000000000035
:400BC00000000000000000000000000000000000000000000000000000000000000000000000000000000000000000000000000000000000000000000000000000000000F5
:400C000000000000000000000000000000000000000000000000000000000000000000000000000000000000000000000000000000000000000000000000000000000000B4
:0200000490303A
:02000000D268C4
:0200000490402A
:200000000000000000000000000000000000000000000000000000000000000000000000E0
:0200000490501A
:0C000000000204C81193110104CBE3FBC3
:0200000490600A
:0100000001FE
:00000001FF